S01F000050696E65636F6E655F4C6F676765725F50726F6A6563742E73726563DF
S113000088200020C1060000BD060000BD060000D7
S113001000000000000000000000000000000000DC
S1130020000000000000000000000000BD06000009
S11300300000000000000000BD060000BD06000036
S1130040BD060000BD0600008D010000BD060000D5
S1130050A9010000BD060000BD060000BD060000A9
S1130060BD060000BD060000BD060000BD06000080
S1130070BD060000BD060000BD060000BD06000070
S1130080BD060000BD060000BD060000BD06000060
S1130090BD060000BD060000BD060000BD06000050
S11300A0BD06000010B5064C2378002B07D1054B84
S11300B0002B02D0044800E000BF0123237010BDD0
S11300C004000020000000001408000008B5084BDC
S11300D0002B03D00748084900E000BF0748036825
S11300E0002B03D0064B002B00D0984708BDC04618
S11300F0000000001408000008000020140800009C
S113010000000000054B197802220A431A701A1CD9
S113011053785BB2002BFBDB7047C04600180040ED
S113012000B583B0124B996940220A439A6101A930
S113013000230B7003200F4B984703200E4B984766
S11301400E4B197801220A431A701A1C53785BB2B9
S1130150002BFBDB0A4B191C4031002204C38B42E9
S1130160FCD11022074B1A60074B984703B000BD1F
S113017000040040B90500002D05000000180040EF
S11301803C00002000E100E00501000008B5012268
S1130190034B9A71034B1B68002B00D0984708BD92
S11301A0001000407C00002070B50022164B1A702D
S11301B000231F26154D144C1F2B10D919E0144988
S11301C000E000210A619B005B59002B00D0984796
S11301D023780133DBB223700F2B14D8ECE7321CE5
S11301E01A40012191400A1C094909691142E6D1CA
S11301F0EEE7321C1A40012191400A1C00210969D2
S11302001142DED1E4E770BD800000203C000020F4
S11302100018004000B583B001AB80221A700A7840
S11302205A704A789A708A78DA70191C014B984788
S113023003B000BD610600007047C0460C4B1B684C
S1130240002B10D1EFF31083002B09D172B6BFF34A
S11302505F8F0022074B1A700122074B1A7002E0CD
S11302600022054B1A70024B1A6801321A6070475B
S1130270200000200000002024000020084B1A6801
S1130280013A1A601B68002B09D1064B1B78002B1E
S113029005D00122044B1A70BFF35F8F62B670471A
S11302A020000020240000200000002070B50C4B2A
S11302B01C6A01788578407801221040800140262C
S11302C0B44304432A40D00180229443221C0243B5
S11302D0032001400902034802400A431A6270BD28
S11302E000080040FFFCFFFF07283BD880001E4B9E
S11302F01B589F46002036E01C4B196A02220A4311
S11303001A6200202FE0194B996902220A439A616C
S1130310002028E0154B198A02220A431A82002081
S113032021E0124B998A02220A439A8200201AE0A1
S11303300F4B196802220A431A601A680D4B1A40BF
S11303400A4B9A84191C1022CB681A42FCD0084A22
S11303509168064BD96251689962126892B29A8484
S1130360002000E017207047D40700000008004078
S1130370280000207FFF000030B585B0C222D200E3
S11303801A4B9A601A4B5A681E218A435A600123F9
S11303906A4613700024174DE0B26946A847013439
S11303A01C2CF9D103A80024447001258570047025
S11303B0114B98470620114B9847114B9847114B06
S11303C01C725C729C72DC7201956B465C70062335
S11303D06A46137014725472002069460A4B984797
S11303E000200A4B984705B030BDC04600080040C5
S11303F000400041B9050000AD020000E902000020
S1130400110400000004004035040000E904000069
S1130410064B996908220A439A610122044B1A7017
S1130420191C0B781342FCD17047C04600040040ED
S1130430000C0040F8B5061C071C0D782D0205437E
S11304404B78002B02D08023DB021D434B7A002B18
S113045002D080231B031D434C68012C17D9631E53
S11304601C420FD1022C06D90223002201325B0068
S11304709C42FBD800E000221702374380235B0331
S11304801D4304E02702374380239B021D430B7A5C
S1130490002B02D080239B031D430F4A53785BB289
S11304A0002BFBDB0D4B98470D4B1E700A4A53780B
S11304B05BB2002BFBDB084B9F601A1C53785BB2CA
S11304C0002BFBDB044B5968802252020A4015437F
S11304D05D60044B9847F8BD000C00403D020000ED
S11304E0080C00407D02000010B5041C0B4A537830
S11304F05BB2002BFBDB0A4B98470A4B1C70074A84
S113050053785BB2002BFBDB044B59688022520208
S11305100A435A60044B984710BDC046000C004083
S11305203D020000040C00407D02000010B5041CD4
S1130530064B9847064B1C70064B59888022D20103
S11305400A435A80044B984710BDC0463D02000040
S1130550020C0040000C00407D02000010B5041C99
S11305600F4B98470F4B1C700F4B58880005000F1A
S113057059880E4A0A405A8059880D4A0A405A80BE
S1130580191C8022D2014B881342FCD1064B010274
S11305905888064A02400A435A80064B984710BDC1
S11305A03D020000020C0040000C0040FFF0FFFF81
S11305B0FFBFFFFF7D02000010B50C782402044346
S11305C0024B9847A4B2024B5C8010BD5D0500004D
S11305D0000C004030B5D378002B1ED11378802B4B
S11305E004D01B0680246402234300E000235478D3
S11305F00225AC430AD19478002C03D18024A402B0
S1130600234302E0C024E402234341605478013CC4
S1130610012C04D8114C234001E0416000230D0457
S11306202D0CA024E4052C431C4384620D0CD0241F
S113063024062C431C438462D478002C0CD15C0324
S113064005D59378012B01D1816100E04161537894
S1130650013B012B00D8816030BDC046FFFFFBFF8A
S113066008B5031C0A1CC1090020002903D158093C
S1130670C001044940181F210B4001219940024B3D
S1130680984708BD00440041D50500007047C046A6
S113069008B5054B9847054B9847054B9847054BBC
S11306A09847054B984708BD7903000039020000BC
S11306B08D060000210100008D060000FEE7C04603
S11306C010B51C4B1C4A9A4203D01C4B194A9A423F
S11306D004D31B4B1B4A9A4210D31BE01A4B1748F6
S11306E00330C01A80080130800000231149124AE7
S11306F0D458CC5004338342FAD1EAE7114B1A1D83
S11307000F490331891A890889005218002102C34C
S11307109342FCD10D4BFF210D4A8A439A600D4B45
S1130720596880220A435A600B4B98470B4B9847F1
S1130730FEE7C0460000002014080000040000206A
S113074084000020040000200400002000ED00E0EC
S1130750000000000040004189070000610700001C
S113076000B583B0064B984701A900238B70012282
S11307700A704B700B20034B9847002003B000BD58
S1130780910600001502000070B50E4B0E4D0024BA
S1130790ED1AAD101E1CAC4204D0A300F3589847C8
S11307A00134F8E700F026F8084B094D0024ED1A4F
S11307B0AD101E1CAC4204D0A300F358984701347A
S11307C0F8E770BD00080000000800000008000001
S11307D00408000014030000640300006403000024
S11307E0F40200000603000022030000F8020000E7
S11307F030030000F8B5C046F8BC08BC9E467047FC
S1130800CD000000F8B5C046F8BC08BC9E46704751
S1070810A50000003B
S107081401000000DB
S90306C135
